:03000000020800F3
:0C080000787FE4F6D8FD75811A020847E5
:1008D4000A08C0F9A4B0999282F880900812000125
:0608E400020304050607F3
:1008B400E4FDFCC3ED9FEC9E5015E4FBFA0BBB007A
:0F08C400010AEB64784A70F50DBD00010C80E469
:0108D3002202
:10088C00751A01E4F9E4F5A0741229F8E62408F8C5
:10089C00E6F580851AA07F027E001208B4E51A25C1
:0708AC00E0F51A09B908DEAE
:0108B3002222
:1008EB00E4FF74122FF8A6070FBF08F67580FFE41C
:0208FB00F5A066
:0108FD0022D8
:0808FE001208EB12088C80FBCC
:10080C000208FEE493A3F8E493A34003F68001F2FC
:10081C0008DFF48029E493A3F85407240CC8C333ED
:10082C00C4540F4420C8834004F456800146F6DFBC
:10083C00E4800B01020408102040809008D4E47E70
:10084C00019360BCA3FF543F30E509541FFEE493B1
:10085C00A360010ECF54C025E060A840B8E493A378
:10086C00FAE493A3F8E493A3C8C582C8CAC583CAA3
:10087C00F0A3C8C582C8CAC583CADFE9DEE780BE5B
:0108EA00000D
:00000001FF
