:10000300FCF9F3E7CF9F3F7FFFFFFFFFFFFFFFFFFA
:10001300E7DBBD7EBDDBE7FFE7C3810081C3E7FF0D
:10002300AA5518FFF00F00FFF8F1E3C78F1F3F7FBA
:100033007F3F1F8FC7E3F1F8FF0000FFFF0FF0FFC3
:10004300FEFDFBF7EFDFBF7FFFFFFFFFFFFFFFFFBC
:10005300FFFFFFFFFFFFFFFF7FBFDFEFF7FBFDFEAC
:10006300FEFCF8F0E0C0800000000000000000008B
:1000730000000000000000000080C0E0F0F8FCFE7B
:1000830000FF00FF00FF00FFFFFFFFFFFFFFFFFE7A
:10009300FCF9F3E7CF9F3FFFE7DBBD7EBDDBE7FF67
:1000A300E7C3810081C3E7FFAA5518FFF00F00FFE4
:1000B300F8F1E3C78F1F3F7F7F3F1F8FC7E3F1F83F
:1000C300FF0000FFFF0FF0FFFFFFFFFFFFFFFFFF3A
:1000D300FEFDFBF7EFDFBF7F7FBFDFEFF7FBFDFE2B
:1000E300FFFFFFFFFFFFFFFFFFFFFFFFFFFFFFFF1D
:1000F300FEFCF8F0E0C080000080C0E0F0F8FCFEF9
:10010300FFFFFFFFFFFFFFFF00FF00FF00FF00FFF8
:10011300E4F508E50890000393F580E50890008B6B
:1001230093F5A07F967E001201380508E508C39475
:050133008840E080DBC4
:10013800EF1FAA0670011E4A60147C007D78D3ED7B
:0E0148009400EC940040E9ED1D70F31C80F073
:010156002286
:03000000020157A3
:0C015700787FE4F6D8FD758108020113E2
:00000001FF
