:030000000208FEF5
:0C08FE00787FE4F6D8FD75810C02090A31
:080800007D017F2C7C007E00CD
:08080800EF4E7004ED4C601E80
:10081000750878D508FDEF4E60EEEF1F70011EEFF2
:0C0820004E70E5ED4C60E1ED1D70DD1C3C
:03082C0080DA224D
:10087E00E50CC3940C5010B281120800050CE50C67
:0E088E00B406EDD28280E9E4F50C750B03226E
:1008D500D280D281C282C283D284D2857D0B7FB879
:0708E500120804750B02224A
:1008BA00C280D281D282D283D284C2857D077C0053
:0B08CA007FD07E00120808750B04228E
:10089C00E50CC3940C5010B284120800050CE50C46
:0E08AC00B406EDD28580E9E4F50C750B01224F
:10085A00E50B24FE600F146011146013240370F07A
:10086A001208D580EB12087E80E61208BA80E112DF
:04087A00089C80DC7A
:10082F00750800750900750A00E4FFAB08050AE5B5
:10083F000AAA097002050914F9E41208EC0FBF7F28
:0A084F00EA758109E4F50C750B0150
:01085900227C
:06090A0012082F02085A3A
:1008EC00BB010689828A83F0225002F722BBFE01EB
:0208FC00F322E5
:00000001FF
