:0D00EE00EFD3940040077EEBDEFE1F80F391
:0100FB0022E2
:03011F00DFFE22DE
:0B010700C0F9A4B0999282F88090FF2C
:0A00FC000808000A0A0A0A0A0A0AA4
:10009200751180E4F512E4F5A074082512F8E690D3
:1000A200010793F5808511A07F057E001200EEAF57
:1000B200117801EF08800103D8FDF5110512E51250
:0500C200C3940840D1C9
:0100C7002216
:1000C800120119E51075F00A8485F008E51075F03D
:1000D8000A8475F00A8485F009E51075F06484F5E2
:0600E8000A12009280DD07
:06011900E4F510020112E2
:07011200D2AFD2A8C288227F
:03000300020122D5
:0301220005103293
:03000000020006F5
:0C000600787FE4F6D8FD75811202004DF1
:100012000200C8E493A3F8E493A34003F68001F23C
:1000220008DFF48029E493A3F85407240CC8C333EF
:10003200C4540F4420C8834004F456800146F6DFBE
:10004200E4800B01020408102040809000FCE47E52
:10005200019360BCA3FF543F30E509541FFEE493B3
:10006200A360010ECF54C025E060A840B8E493A37A
:10007200FAE493A3F8E493A3C8C582C8CAC583CAA5
:10008200F0A3C8C582C8CAC583CADFE9DEE780BE5D
:0101060000F8
:00000001FF
