:0D016800EFD3940040077EEBDEFE1F80F316
:010175002267
:1001580012014212010C8F1B12008F1200D680F37D
:10014200E4FF74082FF8E6FE74102FF8A6060FBF1E
:0501520008F0E4F51CBB
:010157002285
:0B018100C0F9A4B0999282F88090FFB2
:0A0176000808000A0A0A0A0A0A0A29
:1000D600751880E4F51AE4F5A07410251AF8E69070
:1000E600018193F5808518A07F057E00120168AF17
:1000F600187801EF08800103D8FDF518051AE51AEE
:05010600C3940840D184
:01010B0022D1
:10010C0075900FE590540F640F60287F0F7E0012DE
:10011C000168E590540F640F6016E590540FF519C3
:10012C00E590540F640F60051200D680F3AF1922CE
:05013C007F0F227F0F80
:01014100229B
:10008F00E51BB40E13051CE51CD394074003751C28
:10009F00077410251CF8A61CE51BB40D10E51CD326
:1000AF00940040097410251CF8760A151CE51BB442
:1000BF000B14E4F51CFF74082FF8E6FE74102FF8EC
:0600CF00A6060FBF08F0B9
:0100D5002208
:03000000020003F8
:0C000300787FE4F6D8FD75811C02004AED
:10000F00020158E493A3F8E493A34003F68001F2AE
:10001F0008DFF48029E493A3F85407240CC8C333F2
:10002F00C4540F4420C8834004F456800146F6DFC1
:10003F00E4800B0102040810204080900176E47EDA
:10004F00019360BCA3FF543F30E509541FFEE493B6
:10005F00A360010ECF54C025E060A840B8E493A37D
:10006F00FAE493A3F8E493A3C8C582C8CAC583CAA8
:10007F00F0A3C8C582C8CAC583CADFE9DEE780BE60
:01018000007E
:00000001FF
