:03000000020800F3
:0C080000787FE4F6D8FD75811A020847E5
:0B097900C0F9A4B0999282F88090FFB2
:060984000118000119003A
:0B096E00EF1FAC0670011E4C70F6225B
:10090C007D80E4FBE4F5A074102BF8E69009799354
:10091C00F5808DA07F647E0012096EBD01047D8080
:0A092C008004EDC313FD0BBB08DAD5
:01093600229E
:1008DC0075900FE590540F640F60227FE87E031231
:0B08EC00096EE590540FFF640F6012CE
:1008F7008F1AE590540F640F600512090C80F3AF4F
:020907001A22B2
:020909007F0F5E
:01090B0022C9
:10088C00BF0E140518E518D39407400375180774A8
:10089C00102518F8A61822BF0D18E518C3940040AF
:1008AC002E74102518F8760AE518D39400402015FC
:0508BC001822BF0B1A19
:1008C100E4F518F51A7408251AF8E6FF7410251ACC
:0A08D100F8A607051AE51AB408EBB3
:0108DB0022FA
:10093700E4FF74082FF8760A74082FF8E6FE74109F
:0D0947002FF8A6060FBF08EAE4F510F5181A
:010954002280
:100955001209371208DC8F19E519640F60031208B4
:090965008C12090CE4F51080EA83
:10080C00020955E493A3F8E493A34003F68001F2A4
:10081C0008DFF48029E493A3F85407240CC8C333ED
:10082C00C4540F4420C8834004F456800146F6DFBC
:10083C00E4800B0102040810204080900984E47EBF
:10084C00019360BCA3FF543F30E509541FFEE493B1
:10085C00A360010ECF54C025E060A840B8E493A378
:10086C00FAE493A3F8E493A3C8C582C8CAC583CAA3
:10087C00F0A3C8C582C8CAC583CADFE9DEE780BE5B
:01098A00006C
:00000001FF
