:03000000020800F3
:0C080000787FE4F6D8FD758108020847F7
:0A08DE00C0F9A4B0999282F880904E
:0308F800010800F4
:0E08D000758906758CFF758AFFD2A9D28C221D
:0508EF00D2A8D288220E
:0708E80075803F75A03F225F
:03000B000208BB2D
:1008BB00C0E0C0D00508E508C39464400375080088
:0508CB00D0D0D0E032A6
:030003000208F4FC
:0408F4007508003251
:10088C007581081208E81208D01208EF75B802D268
:10089C00AFE50875F00A84FFE50875F00A84AEF040
:0F08AC00EF9008DE93F4F580EE93F4F5A080E270
:10080C0002088CE493A3F8E493A34003F68001F26E
:10081C0008DFF48029E493A3F85407240CC8C333ED
:10082C00C4540F4420C8834004F456800146F6DFBC
:10083C00E4800B01020408102040809008F8E47E4C
:10084C00019360BCA3FF543F30E509541FFEE493B1
:10085C00A360010ECF54C025E060A840B8E493A378
:10086C00FAE493A3F8E493A3C8C582C8CAC583CAA3
:10087C00F0A3C8C582C8CAC583CADFE9DEE780BE5B
:0108FB0000FC
:00000001FF
