:03000000020800F3
:0C080000787FE4F6D8FD75811F020847E0
:10096200041C00000000010A01011B000208000033
:10097200100BC0F9A4B0999282F880908883C6A126
:02098200868E5F
:1009A700E4FDFCC3ED9FEC9E5015E4FBFA0BBB0086
:0F09B700010AEB64784A70F50DBD00010C80E475
:0109C600220E
:10093400E4F5A0F9E4F5A0741C29F8E6240BF8E624
:10094400F580850AA07F027E001209A7AF0A78010C
:0D095400EF08800123D8FDF50A09B904D78A
:010961002273
:1008E100AB07AA067C037DE812088C8F1C7C037D74
:1008F100E8AF03AE0212088CAA04AB057C007D644C
:10090100AF03AE0212088C8F1D7C007D64AF03AE75
:100911000212088CAA04AB057C007D0AAF03AE026B
:1009210012088C8F1E7C007D0AAF03AE0212088C68
:020931008D1F18
:0109330022A1
:100985000509E50970020508D3940FE50894274089
:1009950005E4F508F509AF09AE081208E1120934B6
:0209A50080DEF2
:1009C700751C01751D02751E03751F04750A0175D7
:0609D70008047509D2229C
:0609DD001209C7020985A2
:10080C000209DDE493A3F8E493A34003F68001F21C
:10081C0008DFF48029E493A3F85407240CC8C333ED
:10082C00C4540F4420C8834004F456800146F6DFBC
:10083C00E4800B0102040810204080900962E47EE1
:10084C00019360BCA3FF543F30E509541FFEE493B1
:10085C00A360010ECF54C025E060A840B8E493A378
:10086C00FAE493A3F8E493A3C8C582C8CAC583CAA3
:10087C00F0A3C8C582C8CAC583CADFE9DEE780BE5B
:010984000072
:10088C00BC000BBE0029EF8DF084FFADF022E4CC50
:10089C00F875F008EF2FFFEE33FEEC33FCEE9DEC19
:1008AC00984005FCEE9DFE0FD5F0E9E4CEFD22ED5F
:1008BC00F8F5F0EE8420D21CFEADF075F008EF2FA9
:1008CC00FFED33FD4007985006D5F0F222C398FD9A
:0508DC000FD5F0EA2237
:00000001FF
