:10000300E4F508750901E50924FE60221460421431
:100013006057240370F0D280D281C282C283D2841B
:10002300D2857FB87E0B12009075090280D8E5084F
:10003300C3940C5014B2817F2C7E011200900508EA
:10004300E508B406E9D28280E5E4F5087509038082
:10005300B5C280D281D282D283D284C2857FD07E40
:1000630007120090750904809DE508C3940C501491
:10007300B2847F2C7E011200900508E508B406E9DE
:0D008300D28580E5E4F50875090102000949
:10009000EF1FAA0670011E4A600B7D78EDD3940015
:0500A00040EE1D80F799
:0100A5002238
:030000000200A655
:0C00A600787FE4F6D8FD758109020003A4
:00000001FF
