:030000000200E318
:0C00E300787FE4F6D8FD75812002004C07
:10004C001200D612006892011200809202120098DF
:0C005C0092031200B0920012000380E733
:10006800D2902090117F0F7E001200C8209005309A
:0800780090FDD322C322C32234
:10008000D2912091117F0F7E001200C8209105307F
:0800900091FDD322C322C3221B
:10009800D2922092117F0F7E001200C82092053064
:0800A80092FDD322C322C32202
:1000B000D2932093117F0F7E001200C82093053049
:0800C00093FDD322C322C322E9
:0D00D6007508FE7509FE8508808509A022C9
:0D00C800EFD3940040077EEBDEFE1F80F3B7
:0100D5002208
:1000030030010FAF087801EF08800123D8FDF50810
:10001300F58030020FAF087801EF08800103D8FDA7
:10002300F508F58030030FAF097801EF088001234D
:10003300D8FDF509F5A030000FAF097801EF08806E
:090043000103D8FDF509F5A02226
:00000001FF
