:03000000020003F8
:0C000300787FE4F6D8FD75812202004AE7
:01020C0022CF
:1001B100D3EF9400EE940040147DF57C00ED1D70AA
:0D01C100011CED4C70F7EF1F70E61E80E38F
:0101CE00220E
:1001CF00D3EF9400EE940040147DF67C00ED1D708B
:0D01DF00011CED4C70F7EF1F70E61E80E371
:0101EC0022F0
:1001ED00100CC0F9A4B0999282F880908883C6A1B2
:0601FD00868E021C10AB0F
:10016800751F01E4F51EE4F5A0740C251EF8E6F5EC
:1001780080851FA07F017E001201CFAF1F7801EF9D
:1001880008800123D8FDF51F051EE51EC39408400D
:10019800D50520E520B41E10E4F5A07580FF7F2C5E
:0801A8007E011201CFE4F520F5
:0101B000222C
:10008F00752201AE1CAF1D7C037DE81201138F0892
:10009F00AE1CAF1D7C037DE81201137E007F64CF81
:1000AF00CDCFCECCCE1201138F09AE1CAF1D7C006D
:1000BF007D641201137E007F0ACFCDCFCECCCE123E
:1000CF0001138F0AAE1CAF1D7C007D0A1201138D28
:1000DF000BE4F521E4F5A074082521F8E6240CF8CB
:1000EF00E6F5808522A07F017E001201B1AF227854
:1000FF0001EF08800123D8FDF5220521E521C394E6
:03010F000440D1D8
:0101120022CA
:0802040012020C12016880FBDC
:10000F00020204E493A3F8E493A34003F68001F201
:10001F0008DFF48029E493A3F85407240CC8C333F2
:10002F00C4540F4420C8834004F456800146F6DFC1
:10003F00E4800B01020408102040809001EDE47E63
:10004F00019360BCA3FF543F30E509541FFEE493B6
:10005F00A360010ECF54C025E060A840B8E493A37D
:10006F00FAE493A3F8E493A3C8C582C8CAC583CAA8
:10007F00F0A3C8C582C8CAC583CADFE9DEE780BE60
:0102030000FA
:10011300BC000BBE0029EF8DF084FFADF022E4CCD0
:10012300F875F008EF2FFFEE33FEEC33FCEE9DEC99
:10013300984005FCEE9DFE0FD5F0E9E4CEFD22EDDF
:10014300F8F5F0EE8420D21CFEADF075F008EF2F29
:10015300FFED33FD4007985006D5F0F222C398FD1A
:050163000FD5F0EA22B7
:00000001FF
