:030000000208A74C
:0C08A700787FE4F6D8FD75810902080096
:10088D00D3EF9400EE94004010EF1F70011E7D78A1
:09089D00EDD3940040EA1D80F740
:0108A600222F
:10080000E4F508750901E50924FE6022146042142C
:100810006057240370F0D280D281C282C283D28416
:10082000D2857FB87E0B12088D75090280D8E50845
:10083000C3940C5014B2817F2C7E0112088D0508E0
:10084000E508B406E9D28280E5E4F508750903807D
:10085000B5C280D281D282D283D284C2857FD07E3B
:100860000712088D750904809DE508C3940C501487
:10087000B2847F2C7E0112088D0508E508B406E9D4
:0D088000D28580E5E4F5087509010208063F
:00000001FF
