:03000000020800F3
:0C080000787FE4F6D8FD758109020847F6
:06093F000109010108009E
:10091300AB07AC05EB7003EC6021EC7008EB601BDC
:100923001B7CFF80011CE4FEEEC394FA50E600003A
:0B09330000000000000000000E80ED3E
:01093E002296
:10088C00758109750901E4F508E50924FE60191460
:10089C00603B146047240370697580337D0B7FB80F
:1008AC0012091375090280E1E508C3940C50166314
:1008BC0080027D017F2C1209130508E508B406C9D6
:1008CC0043800480C4E4F50875090380BC75803A44
:1008DC007D077FD012091375090480ADE508C39418
:1008EC000C50176380107D017F2C1209130508E54D
:1008FC000864067094438020808FE4F50875090124
:07090C00808775090180825C
:10080C0002088CE493A3F8E493A34003F68001F26E
:10081C0008DFF48029E493A3F85407240CC8C333ED
:10082C00C4540F4420C8834004F456800146F6DFBC
:10083C00E4800B010204081020408090093FE47E04
:10084C00019360BCA3FF543F30E509541FFEE493B1
:10085C00A360010ECF54C025E060A840B8E493A378
:10086C00FAE493A3F8E493A3C8C582C8CAC583CAA3
:10087C00F0A3C8C582C8CAC583CADFE9DEE780BE5B
:0109450000B1
:00000001FF
