:03000000020003F8
:0C000300787FE4F6D8FD75811F02004AEA
:0D017F00EFD3940040077EEBDEFE1F80F3FF
:01018C002250
:10016800100CC0F9A4B0999282F880908883C6A137
:06017800868E021C10AB94
:10008F00751F01AE1CAF1D7C037DE81201138F0895
:10009F00AE1CAF1D7C037DE81201137E007F64CF81
:1000AF00CDCFCECCCE1201138F09AE1CAF1D7C006D
:1000BF007D641201137E007F0ACFCDCFCECCCE123E
:1000CF0001138F0AAE1CAF1D7C007D0A1201138D28
:1000DF000BE4F51EE4F5A07408251EF8E6240CF8D1
:1000EF00E6F580851FA07F017E0012017FAF1F788C
:1000FF0001EF08800123D8FDF51F051EE51EC394EF
:03010F000440D1D8
:0101120022CA
:08018D0012019512008F80FBA6
:010195002247
:10000F0002018DE493A3F8E493A34003F68001F279
:10001F0008DFF48029E493A3F85407240CC8C333F2
:10002F00C4540F4420C8834004F456800146F6DFC1
:10003F00E4800B0102040810204080900168E47EE8
:10004F00019360BCA3FF543F30E509541FFEE493B6
:10005F00A360010ECF54C025E060A840B8E493A37D
:10006F00FAE493A3F8E493A3C8C582C8CAC583CAA8
:10007F00F0A3C8C582C8CAC583CADFE9DEE780BE60
:01017E000080
:10011300BC000BBE0029EF8DF084FFADF022E4CCD0
:10012300F875F008EF2FFFEE33FEEC33FCEE9DEC99
:10013300984005FCEE9DFE0FD5F0E9E4CEFD22EDDF
:10014300F8F5F0EE8420D21CFEADF075F008EF2F29
:10015300FFED33FD4007985006D5F0F222C398FD1A
:050163000FD5F0EA22B7
:00000001FF
